:060000000A128A11A0287B
:100122008312031309158530F000F00B9628831211
:10013200031309118530F000F00B9D280800D70148
:10014200D801D901DA01DB01DC01DD01DE01DF01C9
:10015200E001E101E201E301E40183010A128A11F3
:10016200822D7318B528B928831203130914BC28E9
:100172008312031309108910710888000A128A1168
:1001820091200A128A110800FD01F91FC928CA2804
:10019200D328F809F909F80A0319F90AFD01031429
:1001A200FD0DD3287808F0007908F100F2018E30B5
:1001B200FB007B08F3007D08FC007C08F4000A12B7
:1001C2008A11C7210A128A117008F8007108F90011
:1001D2007208FA00EC280800F601F31FF128F22851
:1001E200FB28F209F309F20A0319F30AF6010314D0
:1001F200F60DFB28F11FFE28FF280529F009F10959
:10020200F00A0319F10A05297108700403190A2971
:100212000B294129F5010314F50D1B2901300310A7
:10022200F00DF10DFF3E031D10290130F40074089A
:10023200F5071B29F11F1E291F290F292129212911
:1002420071087302031D272970087202031C2A29F0
:100252002B2932297008F2027108031CF303F302FE
:10026200322901300310F10CF00CFF3E031D33293B
:100272000130F502031D3E293F2921294129412947
:100282007608031D45294B29F209F309F20A0319DD
:10029200F30A4B297308F101F1077208F001F00724
:1002A20052290800F601F11F572958296129F0093E
:1002B200F109F00A0319F10AF6010314F60D612996
:1002C200F31F642965296F29F209F309F20A031958
:1002D200F30A0130F4007408F6066F29F701F801F9
:1002E20071087004031976297729B529F5010314D9
:1002F200F50D872901300310F00DF10DFF3E031DAE
:100302007C290130F4007408F5078729F11F8A2936
:100312008B297B298D298D2901300310F70DF80DCA
:10032200FF3E031D8E2971087302031D9A2970086E
:100332007202031C9D299E29A6297008F2027108E7
:10034200031CF303F3027714A62901300310F10C06
:10035200F00CFF3E031DA7290130F502031DB2294F
:10036200B3298D29B529B5297608031DB929BF29D5
:10037200F709F809F70A0319F80ABF297808F10101
:10038200F1077708F001F007C62908007308031D7A
:10039200CB29D329720871047004031DD129D229F3
:1003A200E929D3290030F0000030F1000030F200DA
:1003B200412A412AE9290130F5007508F307013085
:1003C2000310F20CF10CF00CFF3E031DE129E929A8
:1003D200FE307205031DEE29EF29DC29072A072AC0
:1003E2000130F5007508F3070130F00700300318FB
:1003F2000130F107003003180130F2070130031019
:10040200F20CF10CF00CFF3E031D002AFF307205C6
:10041200031D0C2A0D2AF1291A2A1A2A0130F30285
:1004220001300310F00DF10DF20DFF3E031D122AF3
:100432001A2AF11F1D2A1E2A0F2A7318212A222A7C
:10044200282AFF30F0057F30F105FF30F205031056
:10045200F30C7308F500F601F70110300310F50DE7
:10046200F60DF70DFF3E031D2F2A7508F0047608DE
:10047200F1047708F2047408031D402A412AF21796
:100482000800780883120313A0007908A1007A08F3
:10049200A2000310210D220DA3002308A900A90820
:1004A200031D542A552A5F2A0030FB000030FA004F
:1004B2000030F9000030F800E72AE72A7808A000A7
:1004C2007908A1007A08A20017300310A20CA10C2F
:1004D200A00CFF3E031D662A2008A3002308A400E7
:1004E200F917FF30F805FF30F9050030FA057808F2
:1004F200A5007908A6007A08A700A8018E30A902F3
:10050200A91F842A852AAA2A2908803A8F3E03181D
:100512008B2A8C2A972A0030FB000030FA00003028
:10052200F9000030F800E72AE72A972A0130031081
:10053200A80CA70CA60CA50CFF3E031D982A01309F
:10054200A0002008A907031DA72AA82A972ACE2AB5
:10055200CE2A18302902031CAF2AB02AC72A00303B
:10056200FB000030FA000030F9000030F800E72A02
:10057200E72AC72A0130A0000310A50DA60DA70D7A
:10058200A80DA00BBD2A0130A902C72AA908031D84
:10059200CB2ACC2ABB2ACE2ACE2A2408031DD22A51
:1005A200DE2AA509A609A709A809A50A0319A60A08
:1005B2000319A70A0319A80ADE2A2808FB0027083C
:1005C200FA002608F9002508F800E72A0800831235
:1005D20003133D08C0003E08C1003F08C2000310DB
:1005E200410D420DC3004308C800C808031DFA2A82
:1005F200FB2A032B0030BA000030BB000030BC00E5
:10060200AF2BAF2B3A08C0003B08C1003C08C20028
:100612000310410D420DC3004308C900C908031D60
:10062200132B142B1C2B0030BA000030BB000030FF
:10063200BC00AF2BAF2B0030C5000030C60000302D
:10064200C70089304907C0004008C8023D08C00001
:100652003E08C1003F08C20010300310C20CC10C9A
:10066200C00CFF3E031D2E2B4008C3004308C900E7
:100672003A08C0003B08C1003C08C2001030031019
:10068200C20CC10CC00CFF3E031D402B4008C3002E
:100692004308C9068030C0004008C905BE17FF30B4
:1006A200BD05FF30BE050030BF05BB17FF30BA05E0
:1006B200FF30BB050030BC051830C0004008C40044
:1006C200622B01300310C50DC60DC70DFF3E031D81
:1006D200632B3C083F02031D742B3B083E02031DA3
:1006E200742B3A083D02031C772B782B842B3A0893
:1006F200BD023B08031C3B0FBE023C08031C3C0A24
:10070200BF024514842B01300310BD0DBE0DBF0D79
:10071200FF3E031D852B0130C402031D912B922B3A
:10072200622B932B4508F0004608F1004708F200BF
:100732004808C0004008F3004908C1004108F4001D
:100742000A128A11C7210A128A117008831203132E
:10075200BA007108BB007208BC00AF2B0800E83079
:10076200F0000330F1007A08F301F3077908F2018F
:10077200F2070A128A1153210A128A11710883128E
:100782000313DA01DA077008D901D907E830F0005B
:100792000330F1007A08F301F3077908F201F20756
:1007A2000A128A11ED200A128A11710883120313A8
:1007B200DC01DC077008DB01DB076430F00000308D
:1007C200F1005C08F301F3075B08F201F2070A1279
:1007D2008A1153210A128A11710883120313DC0150
:1007E200DC077008DB01DB076430F0000030F10049
:1007F2007A08F301F3077908F201F2070A128A1163
:10080200ED200A128A11710883120313DE01DE073A
:100812007008DD01DD070A30F0000030F1005E08EB
:10082200F301F3075D08F201F2070A128A1153215C
:100832000A128A11710883120313DE01DE0770089F
:10084200DD01DD070A30F0000030F1007A08F30123
:10085200F3077908F201F2070A128A11ED200A124F
:100862008A11710883120313E001E0077008DF01A7
:10087200DF078030F1000030F2000030F30000307A
:10088200F4000A128A11B2200A128A118312031387
:100892005908303EF1005A080318013E003EF200AA
:1008A2000130F3000030F4000A128A11B2200A1259
:1008B2008A11831203135B08303EF1005C080318AF
:1008C200013E003EF2000130F3000030F4000A1253
:1008D2008A11B2200A128A11831203135D08303E74
:1008E200F1005E080318013E003EF2000130F30001
:1008F2000030F4000A128A11B2200A128A118312FD
:1009020003135F08303EF10060080318013E003E09
:10091200F2000130F3000030F4000A128A11B22012
:100922000A128A110800831203132A08B0002B0846
:10093200B1002C08B2000310310D320DB3003308A0
:10094200B400B408031DA62CA72CAF2C0030AA00BB
:100952000030AB000030AC00812D812D2D08B0009D
:100962002E08B1002F08B2000310310D320DB30072
:100972003308B900B908031DBF2CC02CC82C0030A5
:10098200AA000030AB000030AC00812D812D390867
:100992007B3EB0003008B4072A08B0002B08B10033
:1009A2002C08B20010300310B20CB10CB00CFF3E98
:1009B200031DD42C3008B3003308B9002D08B00051
:1009C2002E08B1002F08B20010300310B20CB10C87
:1009D200B00CFF3E031DE62C3008B3003308B90605
:1009E2008030B0003008B905AB17AE17FF30AD0547
:1009F200FF30AE050030AF050030B5000030B60064
:100A02000030B7000730B0003008B800082D2A1CAB
:100A12000B2D0C2D1D2D2D08B5072E0803110318C3
:100A22002E0A0319152DB6072F08031103182F0AD2
:100A320003191C2DB7071D2D01300310AC0CAB0C94
:100A4200AA0CFF3E031D1E2D01300310AD0DAE0D8D
:100A5200AF0DFF3E031D262D0130B802031D322DBE
:100A6200332D082D342D0930B0003008B800392D4F
:100A72002A1C3C2D3D2D4E2D2D08B5072E080311A5
:100A820003182E0A0319462DB6072F08031103185F
:100A92002F0A03194D2DB7074E2D01300310AC0C50
:100AA200AB0CAA0CFF3E031D4F2D01300310B70CF7
:100AB200B60CB50CFF3E031D572D0130B802031DC5
:100AC200632D642D392D652D3508F0003608F100AF
:100AD2003708F2003408B0003008F3003908B100DA
:100AE2003108F4000A128A11C7210A128A11700809
:100AF20083120313AA007108AB007208AC00812DA7
:100B02000800013083160313850083120313850145
:100B120083160313860183120313860183160313BC
:100B22008801831203138801831603138901831238
:100B32000313890101308316031788008901A12D4F
:100B42008130831203139F008030831603139F00AA
:100B5200831203139F143830F1000030F20000308A
:100B6200F3000030F4000A128A11B2200A128A112C
:100B72000E30F1000030F2000030F3000030F400DB
:100B82000A128A11B2200A128A11C72D8312031384
:100B92009F18CC2DCD2DC72DCE2D1E08CA00CB01FE
:100BA2004A08E1004B08E200831603131E08831271
:100BB2000313CA00CB014A08E3004B08E4006208B1
:100BC2006104031DE52DE62DED2D6408D801D8073B
:100BD2006308D701D707ED2D013061066204031DBA
:100BE200F32DF42D082E6308003ED7006408031885
:100BF200013E013ED8005808FA01FA075708F901E8
:100C0200F9070A128A11B0230A128A11082E023039
:100C12008312031361066204031D102E112E252E6A
:100C22006308003ED70064080318013E023ED80064
:100C32005808FA01FA075708F901F9070A128A1146
:100C4200B0230A128A11252E033083120313610680
:100C52006204031D2D2E2E2E422E6308003ED70065
:100C620064080318013E033ED8005808FA01FA0747
:100C72005708F901F9070A128A11B0230A128A11D8
:100C8200422EC030F1000030F2000030F30000309C
:100C9200F4000A128A11B2200A128A11C030831299
:100CA2000313BA007F30BB004430BC000030AA00FE
:100CB200A030AB004030AC005808F901F9075708E2
:100CC200F801F8070A128A11C5200A128A11780857
:100CD20083120313AD007908AE007A08AF000A123E
:100CE2008A1194240A128A11831203132A08BD005E
:100CF2002B08BE002C08BF000A128A11E8220A1231
:100D02008A11831203133A08CC003B08CD003C0839
:100D1200CE004C08AD004D08AE004E08AF000030CA
:100D2200AA00C830AB004230AC000A128A119424E7
:100D32000A128A11831203132A08F8002B08F900F9
:100D42002C08FA000A128A1142220A128A11790820
:100D520083120313D601D6077808D501D50764306C
:100D6200F0000030F1005608F301F3075508F201D4
:100D7200F2070A128A1153210A128A117108831288
:100D82000313D001D0077008CF01CF076430F00001
:100D92000030F1005608F301F3075508F201F2079B
:100DA2000A128A11ED200A128A11710883120313A2
:100DB200D401D4077008D301D3070A30F000003001
:100DC200F1005408F301F3075308F201F2070A1283
:100DD2008A1153210A128A11710883120313D40152
:100DE200D4077008D301D3070A30F0000030F100B5
:100DF2005608F301F3075508F201F2070A128A11A5
:100E0200ED200A128A11710883120313D201D2074C
:100E12007008D101D1074F08303EF1005008031885
:100E2200013E003EF2000130F3000030F4000A12ED
:100E32008A11B2200A128A112E30F1000030F2001B
:100E42000130F3000030F4000A128A11B2200A12B3
:100E52008A11831203135308303EF1005408031819
:100E6200013E003EF2000130F3000030F4000A12AD
:100E72008A11B2200A128A11831203135108303EDA
:100E8200F10052080318013E003EF2000130F30067
:100E92000030F4000A128A11B2200A128A1120309C
:100EA200F1000030F2000130F3000030F4000A12C9
:100EB2008A11B2200A128A115630F1000030F20073
:100EC2000130F3000030F4000A128A11B2200A1233
:100ED2008A11831203135808803AFF0081307F027F
:100EE200031D752F33305702031C782F792FA12F42
:100EF200831203135808803AFF0081307F02031DDA
:100F0200842FFF3057020318872F882FA12F8312B7
:100F1200031306148230CB00DD30CA00CA0B8F2FB8
:100F2200CB0B8F2F942F8312031306108230CB002A
:100F3200DD30CA00CA0B9B2FCB0B9B2FA02FA12FFA
:100F4200831203135808803AFF0082307F02031D88
:100F5200AC2FCE305702031CAF2FB02FB42F831209
:100F620003130610B42F831203135808803AFF00AC
:100F720082307F02031DBF2F00305702031CC22F95
:100F8200C32FD72F831203135808803AFF008330F0
:100F92007F02031DCE2F993057020318D12FD22F73
:100FA200D72F8312031306158610D72F831203132C
:100FB2005808803AFF0083307F02031DE22F9930E8
:100FC2005702031CE52FE62FEB2F8312031386141F
:100FD2000611EB2F0330831203135806031DF32F60
:100FE200FF305706031DF62FF72FA12D861006118D
:0E0FF2000610A12DA12DA12D0A128A11002892
:00000001FF
