:060000000A128A113729E3
:100250008312031309158530F000F00B2D2983124A
:10026000031309118530F000F00B34290800D70181
:10027000D801D901DA01DB01DC01DD01DE01DF019A
:10028000E001E101E201E301E40183010A128A11C4
:10029000192E73184C29502983120313091453295A
:1002A0008312031309108910710888000A128A1139
:1002B00028210A128A110800FD01F91F602961290D
:1002C0006A29F809F909F80A0319F90AFD01031462
:1002D000FD0D6A297808F0007908F100F2018E30EE
:1002E000FB007B08F3007D08FC007C08F4000A1288
:1002F0008A115E220A128A117008F8007108F9004A
:100300007208FA0083290800F601F31F8829892959
:100310009229F209F309F20A0319F30AF601031408
:10032000F60D9229F11F952996299C29F009F109CA
:10033000F00A0319F10A9C29710870040319A12914
:10034000A229D829F5010314F50DB22901300310B3
:10035000F00DF10DFF3E031DA7290130F4007408D4
:10036000F507B229F11FB529B629A629B829B82958
:1003700071087302031DBE2970087202031CC12993
:10038000C229C9297008F2027108031CF303F302A1
:10039000C92901300310F10CF00CFF3E031DCA29DE
:1003A0000130F502031DD529D629B829D829D82925
:1003B0007608031DDC29E229F209F309F20A031980
:1003C000F30AE2297308F101F1077208F001F0075E
:1003D000E9290800F601F11FEE29EF29F829F009B3
:1003E000F109F00A0319F10AF6010314F60DF829D0
:1003F000F31FFB29FC29062AF209F309F20A031963
:10040000F30A0130F4007408F606062AF701F80131
:100410007108700403190D2A0E2A4C2AF5010314E1
:10042000F50D1E2A01300310F00DF10DFF3E031DE6
:10043000132A0130F4007408F5071E2AF11F212A3F
:10044000222A122A242A242A01300310F70DF80D3B
:10045000FF3E031D252A71087302031D312A70080F
:100460007202031C342A352A3D2A7008F2027108F0
:10047000031CF303F30277143D2A01300310F10C3F
:10048000F00CFF3E031D3E2A0130F502031D492AF0
:100490004A2A242A4C2A4C2A7608031D502A562A16
:1004A000F709F809F70A0319F80A562A7808F1013A
:1004B000F1077708F001F0075D2A08007308031DB3
:1004C000622A6A2A720871047004031D682A692A64
:1004D000802A6A2A0030F0000030F1000030F2007B
:1004E000D82AD82A802A0130F5007508F307013090
:1004F0000310F20CF10CF00CFF3E031D782A802A49
:10050000FE307205031D852A862A732A9E2A9E2A9A
:100510000130F5007508F3070130F00700300318CB
:100520000130F107003003180130F20701300310E9
:10053000F20CF10CF00CFF3E031D972AFF30720500
:10054000031DA32AA42A882AB12AB12A0130F30262
:1005500001300310F00DF10DF20DFF3E031DA92A2D
:10056000B12AF11FB42AB52AA62A7318B82AB92AC3
:10057000BF2AFF30F0057F30F105FF30F205031090
:10058000F30C7308F500F601F70110300310F50DB8
:10059000F60DF70DFF3E031DC62A7508F004760818
:1005A000F1047708F2047408031DD72AD82AF21739
:1005B0000800780883120313A0007908A1007A08C4
:1005C000A2000310210D220DA3002308A900A908F1
:1005D000031DEB2AEC2AF62A0030FB000030FA005B
:1005E0000030F9000030F8007E2B7E2B7808A00048
:1005F0007908A1007A08A20017300310A20CA10C00
:10060000A00CFF3E031DFD2A2008A3002308A40020
:10061000F917FF30F805FF30F9050030FA057808C2
:10062000A5007908A6007A08A700A8018E30A902C3
:10063000A91F1B2B1C2B412B2908803A8F3E031826
:10064000222B232B2E2B0030FB000030FA00003031
:10065000F9000030F8007E2B7E2B2E2B013003108A
:10066000A80CA70CA60CA50CFF3E031D2F2B0130D8
:10067000A0002008A907031D3E2B3F2B2E2B652B26
:10068000652B18302902031C462B472B5E2B0030AC
:10069000FB000030FA000030F9000030F8007E2B3B
:1006A0007E2B5E2B0130A0000310A50DA60DA70D1B
:1006B000A80DA00B542B0130A9025E2BA908031D25
:1006C000622B632B522B652B652B2408031D692B92
:1006D000752BA509A609A709A809A50A0319A60A41
:1006E0000319A70A0319A80A752B2808FB00270875
:1006F000FA002608F9002508F8007E2B080083126E
:1007000003133D08C0003E08C1003F08C2000310AB
:10071000410D420DC3004308C800C808031D912BBA
:10072000922B9A2B0030BA000030BB000030BC0086
:10073000462C462C3A08C0003B08C1003C08C200C9
:100740000310410D420DC3004308C900C908031D31
:10075000AA2BAB2BB32B0030BA000030BB0000300B
:10076000BC00462C462C0030C5000030C6000030CE
:10077000C70089304907C0004008C8023D08C000D2
:100780003E08C1003F08C20010300310C20CC10C6B
:10079000C00CFF3E031DC52B4008C3004308C90021
:1007A0003A08C0003B08C1003C08C20010300310EA
:1007B000C20CC10CC00CFF3E031DD72B4008C30068
:1007C0004308C9068030C0004008C905BE17FF3085
:1007D000BD05FF30BE050030BF05BB17FF30BA05B1
:1007E000FF30BB050030BC051830C0004008C40015
:1007F000F92B01300310C50DC60DC70DFF3E031DBB
:10080000FA2B3C083F02031D0B2C3B083E02031D44
:100810000B2C3A083D02031C0E2C0F2C1B2C3A0803
:10082000BD023B08031C3B0FBE023C08031C3C0AF4
:10083000BF0245141B2C01300310BD0DBE0DBF0DB2
:10084000FF3E031D1C2C0130C402031D282C292C43
:10085000F92B2A2C4508F0004608F1004708F20061
:100860004808C0004008F3004908C1004108F400EE
:100870000A128A115E220A128A1170088312031367
:10088000BA007108BB007208BC00462C0800E830B2
:10089000F0000330F1007A08F301F3077908F20160
:1008A000F2070A128A11EA210A128A1171088312C8
:1008B0000313DA01DA077008D901D907E830F0002C
:1008C0000330F1007A08F301F3077908F201F20727
:1008D0000A128A1184210A128A11710883120313E1
:1008E000DC01DC077008DB01DB076430F00000305E
:1008F000F1005C08F301F3075B08F201F2070A124A
:100900008A11EA210A128A11710883120313DC0189
:10091000DC077008DB01DB076430F0000030F10019
:100920007A08F301F3077908F201F2070A128A1133
:1009300084210A128A11710883120313DE01DE0773
:100940007008DD01DD070A30F0000030F1005E08BC
:10095000F301F3075D08F201F2070A128A11EA2196
:100960000A128A11710883120313DE01DE07700870
:10097000DD01DD070A30F0000030F1007A08F301F4
:10098000F3077908F201F2070A128A1184210A1288
:100990008A11710883120313E001E0077008DF0178
:1009A000DF078030F1000030F2000030F30000304B
:1009B000F4000A128A1149210A128A1183120313C0
:1009C0005908303EF1005A080318013E003EF2007B
:1009D0000130F3000030F4000A128A1149210A1292
:1009E0008A11831203135B08303EF1005C08031880
:1009F000013E003EF2000130F3000030F4000A1224
:100A00008A1149210A128A11831203135D08303EAC
:100A1000F1005E080318013E003EF2000130F300D1
:100A20000030F4000A128A1149210A128A11831235
:100A300003135F08303EF10060080318013E003EDA
:100A4000F2000130F3000030F4000A128A1149214B
:100A50000A128A110800831203132A08B0002B0817
:100A6000B1002C08B2000310310D320DB300330871
:100A7000B400B408031D3D2D3E2D462D0030AA00C4
:100A80000030AB000030AC00182E182E2D08B0003E
:100A90002E08B1002F08B2000310310D320DB30043
:100AA0003308B900B908031D562D572D5F2D0030AE
:100AB000AA000030AB000030AC00182E182E390808
:100AC0007B3EB0003008B4072A08B0002B08B10004
:100AD0002C08B20010300310B20CB10CB00CFF3E69
:100AE000031D6B2D3008B3003308B9002D08B0008A
:100AF0002E08B1002F08B20010300310B20CB10C58
:100B0000B00CFF3E031D7D2D3008B3003308B9063D
:100B10008030B0003008B905AB17AE17FF30AD0517
:100B2000FF30AE050030AF050030B5000030B60034
:100B30000030B7000730B0003008B8009F2D2A1CE5
:100B4000A22DA32DB42D2D08B5072E0803110318CF
:100B50002E0A0319AC2DB6072F08031103182F0A0C
:100B60000319B32DB707B42D01300310AC0CAB0C37
:100B7000AA0CFF3E031DB52D01300310AD0DAE0DC7
:100B8000AF0DFF3E031DBD2D0130B802031DC92D61
:100B9000CA2D9F2DCB2D0930B0003008B800D02DC4
:100BA0002A1CD32DD42DE52D2D08B5072E080311B1
:100BB00003182E0A0319DD2DB6072F080311031899
:100BC0002F0A0319E42DB707E52D01300310AC0CF3
:100BD000AB0CAA0CFF3E031DE62D01300310B70C31
:100BE000B60CB50CFF3E031DEE2D0130B802031DFF
:100BF000FA2DFB2DD02DFC2D3508F0003608F10024
:100C00003708F2003408B0003008F3003908B100AA
:100C10003108F4000A128A115E220A128A11700841
:100C200083120313AA007108AB007208AC00182EDF
:100C30000800013083160313850083120313850116
:100C40008316031388018312031388018316031389
:100C50008901831203138901013083160317880069
:100C60008901322E8130831203139F008030831656
:100C700003139F00831203139F143830F1000030D8
:100C8000F2000030F3000030F4000A128A1149210A
:100C90000A128A110E30F1000030F2000030F30029
:100CA0000030F4000A128A1149210A128A11582EC2
:100CB000831203139F185D2E5E2E582E5F2E1E0882
:100CC000CA00CB014A08E1004B08E2008316031377
:100CD0001E0883120313CA00CB014A08E3004B0825
:100CE000E40062086104031D762E772E7E2E6408D0
:100CF000D801D8076308D701D7077E2E01306106D7
:100D00006204031D842E852E992E6308003ED700B1
:100D100064080318013E013ED8005808FA01FA079A
:100D20005708F901F9070A128A1147240A128A1191
:100D3000992E02308312031361066204031DA12E53
:100D4000A22EB62E6308003ED70064080318013EA9
:100D5000023ED8005808FA01FA075708F901F907C6
:100D60000A128A1147240A128A11B62E03308312FE
:100D7000031361066204031DBE2EBF2ED32E63082B
:100D8000003ED70064080318013E033ED80058080F
:100D9000FA01FA075708F901F9070A128A114724DC
:100DA0000A128A11D32EC030F1000030F200003058
:100DB000F3000030F4000A128A1149210A128A1144
:100DC000C03083120313BA007F30BB004430BC0034
:100DD0000030AA00A030AB004030AC005808F90148
:100DE000F9075708F801F8070A128A115C210A125C
:100DF0008A11780883120313AD007908AE007A08CF
:100E0000AF000A128A112B250A128A1183120313CA
:100E10002A08BD002B08BE002C08BF000A128A1148
:100E20007F230A128A11831203133A08CC003B086D
:100E3000CD003C08CE004C08AD004D08AE004E0879
:100E4000AF000030AA00C830AB004230AC000A123C
:100E50008A112B250A128A11831203132A08F8001B
:100E60002B08F9002C08FA000A128A11D9220A125A
:100E70008A11790883120313D601D6077808D501A1
:100E8000D5076430F0000030F1005608F301F30795
:100E90005508F201F2070A128A11EA210A128A1190
:100EA000710883120313D001D0077008CF01CF0758
:100EB0006430F0000030F1005608F301F3075508E4
:100EC000F201F2070A128A1184210A128A117108AA
:100ED00083120313D401D4077008D301D3070A3057
:100EE000F0000030F1005408F301F3075308F20159
:100EF000F2070A128A11EA210A128A117108831272
:100F00000313D401D4077008D301D3070A30F000CB
:100F10000030F1005608F301F3075508F201F2071B
:100F20000A128A1184210A128A117108831203138A
:100F3000D201D2077008D101D1074F08303EF1002D
:100F400050080318013E003EF2000130F30000306B
:100F5000F4000A128A1149210A128A112E30F10076
:100F60000030F2000130F3000030F4000A128A1160
:100F700049210A128A11831203135308303EF100EB
:100F800054080318013E003EF2000130F300003027
:100F9000F4000A128A1149210A128A1183120313DA
:100FA0005108303EF10052080318013E003EF200A5
:100FB0000130F3000030F4000A128A1149210A12AC
:100FC0008A112030F1000030F2000130F3000030CF
:100FD000F4000A128A1149210A128A115630F100CE
:100FE0000030F2000130F3000030F4000A128A11E0
:100FF00049210A128A11322E322E0A128A11002831
:00000001FF
