:060000000A128A11052F0F
:100DE8007E088A007F088200F4260A128A11800091
:100DF800840A04087D0603190034FF0A0319FE0A51
:100E0800F82E83135030FD000730FE001730FF0026
:100E18003C3084000A128A11F8260A128A118301CA
:100E28000A128A112B2FC034F934A434B0349934FF
:100E380092348234F83480349034003400340034EE
:100E480000340034003400340034003400342030DE
:100E580084003C30F0000408F1001430F2007008FF
:100E6800840083130008F300F00A710884007308F3
:100E78008000F10AF20B332F8316031385018312C6
:100E88000313850183160313860183120313860156
:100E98008316031788018901512F09308312031320
:100EA800B4000030B500B51F5A2F5B2F5D2F512FAE
:100EB800512F0930B6000030B700B71F642F652FD7
:100EC800672FF02FF02F0930B8000030B900B91F94
:100ED8006E2F6F2F712FE52FE52F0930BA000030E4
:100EE800BB00BB1F782F792F7B2FDA2FDA2F8610C4
:100EF8000611861106143408203E84008313000866
:100F080085000D30F100FB30F000F00B892FF10B5C
:100F1800892F8E2F8312031306100611861186144B
:100F28003608203E84008313000885000D30F10048
:100F3800FB30F000F00B9E2FF10B9E2FA32F831296
:100F4800031386100610861106153808203E840003
:100F58008313000885000D30F100FB30F000F00B22
:100F6800B32FF10BB32FB82F8312031306110610FA
:100F7800861086153A08203E8400831300088500F1
:100F88000D30F100FB30F000F00BC82FF10BC82F2B
:100F9800CD2FFF3083120313BA070318BB0AFF30A3
:100FA800BB07BB1FD82FD92F7B2FDA2FFF30B807ED
:100FB8000318B90AFF30B907B91FE32FE42F712FBF
:100FC800E52FFF30B6070318B70AFF30B707B71F7A
:100FD800EE2FEF2F672FF02FFF30B4070318B50A55
:100FE800FF30B507B51FF92FFA2F5D2F512F512F5D
:080FF800512F0A128A11002892
:00000001FF
