:060000000A128A113D2FD7
:100E58007E088A007F0882002C270A128A118000E7
:100E6800840A04087D0603190034FF0A0319FE0AE0
:100E7800302F8313D430FD000730FE004F30FF00C1
:100E8800A03084000A128A1130270A128A118301BD
:100E98000A128A11832F37340F3439340F34393416
:100EA80031343D34363409341F3430343834363430
:100EB80036343F343334233433342D3401343E3420
:100EC8003034363400340934093488342A34003450
:100ED8002234883488340834883422340034143472
:100EE8000034053411340034883499349834883403
:100EF80022340034443450345534013444342030DE
:100F08008400A030F0000408F1001A30F2007008E4
:100F1800840083130008F300F00A71088400730842
:100F28008000F10AF20B8B2F3A308400BA30F000BF
:100F38000408F1001A30F2007008840083130008D6
:100F4800F300F00A7108840073088000F10AF20BBC
:100F5800A02F8316031385018312031385018316BB
:100F6800031386018312031386018316031788016E
:100F78008901BE2F83120313D401D501D601D701ED
:100F8800ED2F831203135408203E840083130008B6
:100F9800850056083A3E8400000886000630F200B4
:100FA8000E30F100B030F000F00BD82FF10BD82F35
:100FB800F20BD82F013083120313D4070318D50A74
:100FC8000030D5070130D6070318D70A0030D707F5
:100FD800ED2F5708803AFF0080307F02031DF62F5F
:100FE8001A305602031CF92FFA2FC52FBE2FBE2F19
:080FF800BE2F0A128A11002825
:00000001FF
