:060000000A128A11D72E3E
:100D78003F3406345B344F3466346D347D34073485
:100D88007F346F347E088A007F088200C6260A12E4
:100D98008A118000840A04087D0603190034FF0ABA
:100DA8000319FE0ACA2E83133C30FD000630FE00EC
:100DB800BC30FF00323084000A128A11CA260A1297
:100DC8008A1183010A128A11E92E203084003230F8
:100DD800F0000408F1000A30F20070088400831360
:100DE8000008F300F00A7108840073088000F10A13
:100DF800F20BF12E033083160313850083120313BD
:100E08008501831603138701831203138701831651
:100E180003138801831203138801831603178801BB
:100E28008901162F83120313051C1B2F1C2FF82F63
:100E380085181F2F202FF82FAE01AF012F08803AF9
:100E4800FF0080307F02031D2B2F0B302E02031C66
:100E58002E2F2F2F312FF82FF82F83120313B001C5
:100E6800B1013108803AFF0080307F02031D3E2F18
:100E78000B303002031C412F422F442FE12FE12F6A
:100E880083120313881408102E08203E840083134D
:100E9800000887002730F100F530F000F00B522FE2
:100EA800F10B522F83120313081488103008203EC8
:100EB80084008313000887002730F100F530F00024
:100EC800F00B642FF10B642F83120313851C6D2F15
:100ED8006E2FCD2F0518712F722FCD2F2F08AB0134
:100EE800AB072E08AA01AA07AB1F7B2F7C2F7E2FEA
:100EF800CD2FCD2F3108AD01AD073008AC01AC07BF
:100F0800AD1F872F882F8A2FB92FB92F8814081063
:100F18002A08203E84008313000887002730F10048
:100F2800F530F000F00B962FF10B962F8312031378
:100F3800081488102C08203E8400831300088700BA
:100F48002730F100F530F000F00BA82FF10BA82F97
:100F5800FF3083120313AC070318AD0AFF30AD0747
:100F6800AD1FB72FB82F8A2FB92F0930AE00003028
:100F7800AF000930B0000030B100FF30AA070318F5
:100F8800AB0AFF30AB07AB1FCA2FCB2F7E2FCD2F5D
:100F9800CD2F0130B0070318B10A0030B10731086E
:100FA800803AFF0080307F02031DDC2F0B303002B7
:100FB800031CDF2FE02F442FE12F0130831203138E
:100FC800AE070318AF0A0030AF072F08803AFF00BA
:100FD80080307F02031DF22F0B302E02031CF52FE9
:100FE800F62F312FF82FF82F831203138701162FAE
:080FF800162F0A128A110028CD
:00000001FF
