:060000000A128A11872E8E
:100D0E0083010A128A11D42E831203130610861041
:100D1E00303085000A128A11BB260A128A11080089
:100D2E0083120313061086100E3085000A128A11E4
:100D3E00BB260A128A1108008312031306108610AE
:100D4E00803085000A128A11BB260A128A11080009
:100D5E008312031306148610720885000A128A1174
:100D6E00BB260A128A11080083120313061582305D
:100D7E00F100DD30F000F00BC22EF10BC22EC72EAB
:100D8E008312031306118230F100DD30F000F00BF8
:100D9E00CE2EF10BCE2ED32E080083160313850113
:100DAE008312031385017830831603138700831291
:100DBE00031387018316031386018312031386011F
:100DCE0083160317880189010A128A1197260A12BF
:100DDE008A110A128A118B260A128A11F62E831292
:100DEE000313871007110714871DFE2EFF2E0E2FDB
:100DFE000A128A11A3260A128A113130F20000302B
:100E0E00F3000A128A11AF260A128A110E2F8312CC
:100E1E000313071E132F142F232F0A128A11A32632
:100E2E000A128A113430F2000030F3000A128A11CD
:100E3E00AF260A128A11232F83120313871E282F1F
:100E4E00292F382F0A128A11A3260A128A11373037
:100E5E00F2000030F3000A128A11AF260A128A112C
:100E6E00382F83120313071F3D2F3E2F4D2F0A12CB
:100E7E008A11A3260A128A112A30F2000030F300DA
:100E8E000A128A11AF260A128A114D2F83120313EA
:100E9E00071007118714871D552F562F652F0A121D
:100EAE008A11A3260A128A113230F2000030F300A2
:100EBE000A128A11AF260A128A11652F83120313A2
:100ECE00071E6A2F6B2F7A2F0A128A11A3260A1277
:100EDE008A113530F2000030F3000A128A11AF2663
:100EEE000A128A117A2F83120313871E7F2F802FE7
:100EFE008F2F0A128A11A3260A128A113830F20095
:100F0E000030F3000A128A11AF260A128A118F2FAF
:100F1E0083120313071F942F952FA42F0A128A11E1
:100F2E00A3260A128A113030F2000030F3000A12A2
:100F3E008A11AF260A128A11A42F83120313871067
:100F4E0007100715871DAC2FAD2FBC2F0A128A1163
:100F5E00A3260A128A113330F2000030F3000A126F
:100F6E008A11AF260A128A11BC2F83120313071E91
:100F7E00C12FC22FD12F0A128A11A3260A128A114B
:100F8E003630F2000030F3000A128A11AF260A1230
:100F9E008A11D12F83120313871ED62FD72FE62F38
:100FAE000A128A11A3260A128A113930F200003071
:100FBE00F3000A128A11AF260A128A11E62F831243
:100FCE000313071FEB2FEC2FF62E0A128A11A326FE
:100FDE000A128A112330F2000030F3000A128A112D
:100FEE00AF260A128A11F62EF62EF62E0A128A1144
:020FFE000028C9
:00000001FF
