:100000000A128A11242E00308A000408840A82070A
:1000100000346E346F3474342034763461346C348C
:10002000693464340034633461346C346C3469345E
:060030006E346734003459
:100C480083010A128A11992E831203130610861043
:100C5800383085000A128A1158260A128A110800AB
:100C680083120313061086100E3085000A128A11AB
:100C780058260A128A1108008312031306108610D8
:100C8800720885000A128A1158260A128A11080069
:100C98008312031306148610720885000A128A113B
:100CA80058260A128A110800831203130615823087
:100CB800F100DD30F000F00B5F2EF10B5F2E642E9B
:100CC8008312031306118230F100DD30F000F00BBF
:100CD8006B2EF10B6B2E702E0800F300831203139A
:100CE800061486108B2E730884000A128A110320BA
:100CF8000A128A118312031385000130F200720868
:100D0800F3070A128A1158260A128A118B2E7308C1
:100D180084000A128A1103200A128A110038031D5E
:100D2800962E972E772E982E0800F401F50183163B
:100D38000313850183120313850178308316031387
:100D48008700831203138701F83083160313860084
:100D580083120313860183160317880189010A1277
:100D68008A1128260A128A110A128A1134260A12AE
:100D78008A118030F2000030F3000A128A114026EE
:100D88000A128A11C72E831203138710071107143A
:100D9800871DCF2ED02EE72E3130F2000030F30021
:100DA8000A128A114C260A128A110130F407031814
:100DB800F50A0030F507E02E831203138719E52E94
:100DC800E62EE02EE72E071EEA2EEB2E022F3430F9
:100DD800F2000030F3000A128A114C260A128A1116
:100DE8000130F4070318F50A0030F507FB2E8312CB
:100DF8000313071A002F012FFB2E022F871E052F22
:100E0800062F1D2F3730F2000030F3000A128A1126
:100E18004C260A128A110130F4070318F50A00302B
:100E2800F507162F83120313871A1B2F1C2F162F53
:100E38001D2F071007118714871D232F242F3B2FE1
:100E48003230F2000030F3000A128A114C260A12DE
:100E58008A110130F4070318F50A0030F507342F1A
:100E6800831203138719392F3A2F342F3B2F071E6C
:100E78003E2F3F2F562F3530F2000030F3000A1274
:100E88008A114C260A128A110130F4070318F50A50
:100E98000030F5074F2F83120313071A542F552FCD
:100EA8004F2F562F871E592F5A2F712F3830F20087
:100EB8000030F3000A128A114C260A128A110130F6
:100EC800F4070318F50A0030F5076A2F8312031395
:100ED800871A6F2F702F6A2F712F87100710071529
:100EE800871D772F782F8F2F3330F2000030F300D3
:100EF8000A128A114C260A128A110130F4070318C3
:100F0800F50A0030F507882F8312031387198D2FF0
:100F18008E2F882F8F2F071E922F932FAA2F3630B0
:100F2800F2000030F3000A128A114C260A128A11C4
:100F38000130F4070318F50A0030F507A32F8312D0
:100F48000313071AA82FA92FA32FAA2F871EAD2F87
:100F5800AE2FC52F3930F2000030F3000A128A1183
:100F68004C260A128A110130F4070318F50A0030DA
:100F7800F507BE2F83120313871AC32FC42FBE2F62
:100F8800C52F871007110714071FCB2FCC2FC72E8B
:100F98000A3074067504031DD22FD32FE32FC030F7
:100FA800F2000030F3000A128A1140260A128A1150
:100FB8000B300A128A1171260A128A11E32F0A309D
:100FC800740675040319E92FEA2FC72EC030F20002
:100FD8000030F3000A128A1140260A128A110130E1
:100FE8000A128A1171260A128A11C72EC72EC72E15
:080FF800C72E0A128A1100281D
:00000001FF
