:060000000A128A11BD2E58
:100D7A0083010A128A11C12E831603138501831275
:100D8A000313850183160313860183120313860155
:100D9A008316031387018312031387018316031330
:100DAA0088018312031388018316031788018901B6
:100DBA00F301F4017408803AFF0080307F02031DBA
:100DCA00E82E08307302031CEB2EEC2EEE2E2B2F8E
:100DDA002B2F0130F000730AF42E0310F00DFF3EA2
:100DEA00031DF22E7008F1007108831203138504A3
:100DFA000130F000730A032F0310F00DFF3E031DAC
:100E0A00012F7008F100710887040230F200853062
:100E1A00F1009830F000F00B102FF10B102FF20BAD
:100E2A00102F172F0130F3070318F40A0030F407C4
:100E3A007408803AFF0080307F02031D262F083095
:100E4A007302031C292F2A2FEE2E2B2FF501F601F0
:100E5A007608803AFF0080307F02031D362F083063
:100E6A007502031C392F3A2F3C2F792F792F013025
:100E7A00F000750A422F0310F00DFF3E031D402FAC
:100E8A007008F10071088312031386040130F00020
:100E9A00750A512F0310F00DFF3E031D4F2F7008E6
:100EAA00F100710888040230F2008530F1009830B0
:100EBA00F000F00B5E2FF10B5E2FF20B5E2F652F09
:100ECA000130F5070318F60A0030F6077608803A6B
:100EDA00FF0080307F02031D742F08307502031C47
:100EEA00772F782F3C2F792F0730F7000030F80042
:100EFA00F81F802F812F832FBB2FBB2F0130F000CB
:100F0A00770A892F0310F00DFF3E031D872F700803
:100F1A00FF3AF10071088312031386050130F000CD
:100F2A00770A992F0310F00DFF3E031D972F7008C3
:100F3A00FF3AF100710888050230F2008530F100AD
:100F4A009830F000F00BA72FF10BA72FF20BA72F69
:100F5A00AE2F7708FF3EF70078080318013EFF3EE0
:100F6A00F800F81FB92FBA2F832FBB2F0730F900CB
:100F7A000030FA00FA1FC22FC32FC52FFD2FFD2FF5
:100F8A000130F000790ACB2F0310F00DFF3E031D4C
:100F9A00C92F7008FF3AF1007108831203138505FF
:100FAA000130F000790ADB2F0310F00DFF3E031D1C
:100FBA00D92F7008FF3AF100710887050230F20054
:100FCA008530F1009830F000F00BE92FF10BE92F92
:100FDA00F20BE92FF02F7908FF3EF9007A0803187F
:100FEA00013EFF3EFA00FA1FFB2FFC2FC52FFD2FF3
:060FFA000A128A11002812
:00000001FF
