:060000000A128A11312FE3
:100E620083010A128A11352F831603138501860125
:100E720083120313850186013E2FC83083120313A8
:100E82008500773086000230F2008530F10098301C
:100E9200F000F00B4A2FF10B4A2FF20B4A2F512F81
:100EA200C030831203138500773086000230F200CF
:100EB2008530F1009830F000F00B5D2FF10B5D2FC3
:100EC200F20B5D2F642FC630831203138500FF30AF
:100ED20086000230F2008530F1009830F000F00B0D
:100EE200702FF10B702FF20B702F772F83120313D9
:100EF2008501FF3086000230F2008530F100983023
:100F0200F000F00B822FF10B822FF20B822F892F30
:100F1200C630831203138500773086000230F20058
:100F22008530F1009830F000F00B952FF10B952FE2
:100F3200F20B952F9C2FCE3083120313850077304E
:100F420086000230F2008530F1009830F000F00B9C
:100F5200A82FF10BA82FF20BA82FAF2FC2308312AC
:100F620003138500F73086000230F2008530F1006D
:100F72009830F000F00BBB2FF10BBB2FF20BBB2F05
:100F8200C22FC930831203138500773086000230E6
:100F9200F2008530F1009830F000F00BCE2FF10B0B
:100FA200CE2FF20BCE2FD52FF630831203138500EE
:100FB200DD3086000230F2008530F1009830F0001A
:100FC200F00BE12FF10BE12FF20BE12FE82FF130C3
:100FD200831203138500FF3086000230F200853051
:100FE200F1009830F000F00BF42FF10BF42FF20B1C
:0E0FF200F42FFB2F3E2F3E2F0A128A110028EB
:00000001FF
