:060000000A128A115A2DBC
:100AB40083010A128A11862E8312031306108610EC
:100AC400383085000A128A1195250A128A11080005
:100AD40083120313061086100E3085000A128A1141
:100AE40095250A128A110800831203130610861032
:100AF400803085000A128A1195250A128A1108008D
:100B04007418852D892D8312031306148C2D8312DA
:100B1400031306108610720885000A128A1195259F
:100B24000A128A1108008312031306150730F10014
:100B34007D30F000F00B9C2DF10B9C2D83120313E0
:100B440006110730F1007D30F000F00BA72DF10BFA
:100B5400A72D0800F601F31FB02DB12DBA2DF2090F
:100B6400F309F20A0319F30AF6010314F60DBA2D78
:100B7400F11FBD2DBE2DC42DF009F109F00A031992
:100B8400F10AC42D710870040319C92DCA2D002E51
:100B9400F5010314F50DDA2D01300310F00DF10DFC
:100BA400FF3E031DCF2D0130F4007408F507DA2D44
:100BB400F11FDD2DDE2DCE2DE02DE02D7108730209
:100BC400031DE62D70087202031CE92DEA2DF12D98
:100BD4007008F2027108031CF303F302F12D0130D3
:100BE4000310F10CF00CFF3E031DF22D0130F50251
:100BF400031DFD2DFE2DE02D002E002E7608031D75
:100C0400042E0A2EF209F309F20A0319F30A0A2E32
:100C14007308F101F1077208F001F007112E0800C2
:100C2400F601F11F162E172E202EF009F109F00AF5
:100C34000319F10AF6010314F60D202EF31F232ED7
:100C4400242E2E2EF209F309F20A0319F30A0130B5
:100C5400F4007408F6062E2EF701F80171087004EA
:100C64000319352E362E742EF5010314F50D462E78
:100C740001300310F00DF10DFF3E031D3B2E01303A
:100C8400F4007408F507462EF11F492E4A2E3A2E19
:100C94004C2E4C2E01300310F70DF80DFF3E031DB2
:100CA4004D2E71087302031D592E70087202031C25
:100CB4005C2E5D2E652E7008F2027108031CF3038E
:100CC400F3027714652E01300310F10CF00CFF3E93
:100CD400031D662E0130F502031D712E722E4C2E5B
:100CE400742E742E7608031D782E7E2EF709F809CB
:100CF400F70A0319F80A7E2E7808F101F10777083C
:100D0400F001F007852E0800831603138501831272
:100D140003138501831603138701831203138701C9
:100D240083160313860183120313860183160313A8
:100D3400880183120313880183160317880189012C
:100D44008030F2000030F3000A128A1176250A126C
:100D54008A110A128A115E250A128A110A128A114C
:100D64006A250A128A118030F2000030F300003044
:100D7400F4000030F5000A128A1182250A128A1141
:100D8400073083160313810083120313A601A701FE
:100D94000B1126308100CE2E0B1DD12ED22E952F75
:100DA4000130A6070318A70A0030A7076430F00033
:100DB4000030F1002708F301F3072608F201F207D7
:100DC4000A128A1112260A128A1171088312031355
:100DD400A101A1077008A001A0076430F000003051
:100DE400F1002708F301F3072608F201F2070A12BB
:100DF4008A11AC250A128A11710883120313A50102
:100E0400A5077008A401A4070A30F0000030F1001F
:100E14002508F301F3072408F201F2070A128A11E4
:100E240012260A128A11710883120313A501A50759
:100E34007008A401A4070A30F0000030F10027086C
:100E4400F301F3072608F201F2070A128A11AC250E
:100E54000A128A11710883120313A301A3077008ED
:100E6400A201A2078030F2000030F3000030F40049
:100E74000030F5000A128A1182250A128A1183129F
:100E840003132008303EF20021080318013E003EFF
:100E9400F3000130F4000030F5000A128A118225B3
:100EA4000A128A118130F2000030F3000030F4009D
:100EB4000030F5000A128A1182250A128A1183125F
:100EC40003132408303EF20025080318013E003EB7
:100ED400F3000130F4000030F5000A128A11822573
:100EE4000A128A118230F2000030F3000030F4005C
:100EF4000030F5000A128A1182250A128A1183121F
:100F040003132208303EF20023080318013E003E7A
:100F1400F3000130F4000030F5000A128A11822532
:100F24000A128A11952F831203132708803AFF00AF
:100F340080307F02031DA02F5B3026020318A32FED
:100F4400A42FAD2F831203138710071108108810E4
:100F540007140815AD2F831203132708803AFF00E6
:100F640080307F02031DB82F5B302602031CBB2F89
:100F7400BC2FD42F831203132708803AFF0080303C
:100F84007F02031DC72F783026020318CA2FCB2FE8
:100F9400D42F8312031307100711081008118714A4
:100FA4008814D42F831203132708803AFF0080305B
:100FB4007F02031DDF2FB53026020318E22FE32F33
:100FC400EC2F8312031307108710881008110814DC
:100FD4000715EC2F0130831203132706031DF42F8A
:100FE4000E302606031DF72FF82FCE2EA601A701DB
:0C0FF400CE2ECE2ECE2E0A128A1100281E
:00000001FF
