:060000000A128A11992F7B
:100F320083010A128A119D2F8316031387018312DC
:100F420003138701393090000C308E00BC308F00C3
:100F5200AA2F831203130C1CAF2FB02FBC2F01300A
:100F6200F0070318F10A0030F1070C308E00BC3094
:100F72008F000C10BC2F7108803AFF0080307F0276
:100F8200031DC52F033070020318C82FC92FCD2FA0
:100F9200831203130714CD2F7108803AFF008030AB
:100FA2007F02031DD62F03307002031CD92FDA2FC4
:100FB200EB2F7108803AFF0080307F02031DE32F80
:100FC2000B3070020318E62FE72FEB2F8312031367
:100FD2000710EB2F7108803AFF0080307F02031D5B
:100FE200F42F0B307002031CF72FF82FAA2FF001F9
:0E0FF200F101AA2FAA2FAA2F0A128A11002895
:00000001FF
