:060000000A128A11962D80
:100B2C0083010A128A11C02E831203130610861039
:100B3C00383085000A128A11D1250A128A11080050
:100B4C0083120313061086100E3085000A128A11C8
:100B5C00D1250A128A11080083120313061086107D
:100B6C00803085000A128A11D1250A128A110800D8
:100B7C007318C12DC52D831203130614C82D8312AF
:100B8C00031306108610710885000A128A11D125EC
:100B9C000A128A110800831203130615F930F000AB
:100BAC006400F00BD62DDA2D6400831203130611AA
:100BBC00F930F0006400F00BE02DE42D6400080027
:100BCC00F601F31FEA2DEB2DF42DF209F309F20ACD
:100BDC000319F30AF6010314F60DF42DF11FF72D8A
:100BEC00F82DFE2DF009F109F00A0319F10AFE2D7A
:100BFC00710870040319032E042E3A2EF501031408
:100C0C00F50D142E01300310F00DF10DFF3E031DF8
:100C1C00092E0130F4007408F507142EF11F172E5D
:100C2C00182E082E1A2E1A2E71087302031D202E50
:100C3C0070087202031C232E242E2B2E7008F20235
:100C4C007108031CF303F3022B2E01300310F10C7B
:100C5C00F00CFF3E031D2C2E0130F502031D372E28
:100C6C00382E1A2E3A2E3A2E7608031D3E2E442E7E
:100C7C00F209F309F20A0319F30A442E7308F1017D
:100C8C00F1077208F001F0074B2E0800F601F11F76
:100C9C00502E512E5A2EF009F109F00A0319F10ABF
:100CAC00F6010314F60D5A2EF31F5D2E5E2E682EE0
:100CBC00F209F309F20A0319F30A0130F40074087B
:100CCC00F606682EF701F8017108700403196F2EEF
:100CDC00702EAE2EF5010314F50D802E013003108D
:100CEC00F00DF10DFF3E031D752E0130F40074085C
:100CFC00F507802EF11F832E842E742E862E862EC1
:100D0C0001300310F70DF80DFF3E031D872E7108FF
:100D1C007302031D932E70087202031C962E972EDD
:100D2C009F2E7008F2027108031CF303F302771470
:100D3C009F2E01300310F10CF00CFF3E031DA02E72
:100D4C000130F502031DAB2EAC2E862EAE2EAE2E30
:100D5C007608031DB22EB82EF709F809F70A031905
:100D6C00F80AB82E7808F101F1077708F001F007BE
:100D7C00BF2E08008316031385018312031385010C
:100D8C00831603138701831203138701831603133E
:100D9C0086018312031386018316031788018901C8
:100DAC008030F1000030F2000A128A11B2250A12CA
:100DBC008A110A128A119A250A128A110A128A11A8
:100DCC00A6250A128A118030F1000030F2000030A2
:100DDC00F3000030F4000A128A11BE250A128A119F
:100DEC00073083160313810083120313A601A70196
:100DFC000B1126308100022F0B1D052F062FC92F3A
:100E0C000130A6070318A70A0030A7076430F000CA
:100E1C000030F1002708F301F3072608F201F2076E
:100E2C000A128A114C260A128A11710883120313B2
:100E3C00A101A1077008A001A0076430F0000030E8
:100E4C00F1002708F301F3072608F201F2070A1252
:100E5C008A11E6250A128A11710883120313A5015F
:100E6C00A5077008A401A4070A30F0000030F100B7
:100E7C002508F301F3072408F201F2070A128A117C
:100E8C004C260A128A11710883120313A501A507B7
:100E9C007008A401A4070A30F0000030F100270804
:100EAC00F301F3072608F201F2070A128A11E6256C
:100EBC000A128A11710883120313A301A307700885
:100ECC00A201A2078030F1000030F2000030F300E4
:100EDC000030F4000A128A11BE250A128A118312FC
:100EEC0003132008303EF10021080318013E003E98
:100EFC00F2000130F3000030F4000A128A11BE2512
:100F0C000A128A118130F1000030F2000030F30037
:100F1C000030F4000A128A11BE250A128A118312BB
:100F2C0003132408303EF10025080318013E003E4F
:100F3C00F2000130F3000030F4000A128A11BE25D1
:100F4C000A128A118230F1000030F2000030F300F6
:100F5C000030F4000A128A11BE250A128A1183127B
:100F6C0003132208303EF10023080318013E003E13
:100F7C00F2000130F3000030F4000A128A11BE2591
:100F8C000A128A11C92F831203132708803AFF0013
:100F9C0080307F02031DD42F5B3026020318D72F1D
:100FAC00D82FDC2F831203130714DC2F83120313A7
:100FBC002708803AFF0080307F02031DE72F5B304B
:100FCC002602031CEA2FEB2FEF2F831203130710BB
:100FDC00EF2FB4308312031326062704031DF72FBB
:100FEC00F82F022FA601A701022F022F022F0A129F
:040FFC008A1100282E
:00000001FF
