:060000000A128A11162D00
:100A2C0083010A128A11142E8312031306151E2D2C
:100A3C001F2D6400831203130611242D252D640031
:100A4C00080072182A2D2E2D831203130614312D33
:100A5C008312031306108610700885000A128A117F
:100A6C001A250A128A110800F601F31F3E2D3F2D9C
:100A7C00482DF209F309F20A0319F30AF6010314DB
:100A8C00F60D482DF11F4B2D4C2D522DF009F1096F
:100A9C00F00A0319F10A522D710870040319572D2D
:100AAC00582D8E2DF5010314F50D682D0130031012
:100ABC00F00DF10DFF3E031D5D2D0130F4007408A7
:100ACC00F507682DF11F6B2D6C2D5C2D6E2D6E2D89
:100ADC0071087302031D742D70087202031C772DAC
:100AEC00782D7F2D7008F2027108031CF303F302BA
:100AFC007F2D01300310F10CF00CFF3E031D802DF7
:100B0C000130F502031D8B2D8C2D6E2D8E2D8E2D0F
:100B1C007608031D922D982DF209F309F20A031998
:100B2C00F30A982D7308F101F1077208F001F00730
:100B3C009F2D0800F601F11FA42DA52DAE2DF00957
:100B4C00F109F00A0319F10AF6010314F60DAE2DA2
:100B5C00F31FB12DB22DBC2DF209F309F20A0319C2
:100B6C00F30A0130F4007408F606BC2DF701F80105
:100B7C00710870040319C32DC42D022EF501031442
:100B8C00F50DD42D01300310F00DF10DFF3E031DBA
:100B9C00C92D0130F4007408F507D42DF11FD72DA1
:100BAC00D82DC82DDA2DDA2D01300310F70DF80DE4
:100BBC00FF3E031DDB2D71087302031DE72D70082A
:100BCC007202031CEA2DEB2DF32D7008F202710852
:100BDC00031CF303F3027714F32D01300310F10C13
:100BEC00F00CFF3E031DF42D0130F502031DFF2D0B
:100BFC00002EDA2D022E022E7608031D062E0C2E48
:100C0C00F709F809F70A0319F80A0C2E7808F1010C
:100C1C00F1077708F001F007132E08008316031371
:100C2C008501831203138501831603138701831235
:100C3C0003138701831603138601831203138601A2
:100C4C0083160317880189013830F0000030F10059
:100C5C000030F2000030F3000A128A1127250A1224
:100C6C008A110E30F0000030F1000030F20000303C
:100C7C00F3000A128A1127250A128A1107308316EB
:100C8C000313810083120313B001B1010B118330E4
:100C9C008100502E0B1D532E542EFB2F013083122E
:100CAC000313B0070318B10A0030B1076430F00029
:100CBC000030F1003108F301F3073008F201F207BC
:100CCC000A128A11A0250A128A11710883120313C1
:100CDC00A301A3077008A201A2076430F000003042
:100CEC00F1003108F301F3073008F201F2070A12A0
:100CFC008A113A250A128A11710883120313AB0167
:100D0C00AB077008AA01AA070A30F0000030F10006
:100D1C002B08F301F3072A08F201F2070A128A11D1
:100D2C00A0250A128A11710883120313AB01AB07B9
:100D3C007008AA01AA070A30F0000030F10031084F
:100D4C00F301F3073008F201F2070A128A113A256F
:100D5C000A128A11710883120313A501A5077008E2
:100D6C00A401A4078030F0000030F1000030F20044
:100D7C000030F3000A128A1127250A128A118312F5
:100D8C0003132208303EF00023080318013E003EF6
:100D9C00F1000130F2000030F3000A128A1127250D
:100DAC000A128A118130F0000030F1000030F2009C
:100DBC000030F3000A128A1127250A128A118312B5
:100DCC0003132A08303EF0002B080318013E003EA6
:100DDC00F1000130F2000030F3000A128A112725CD
:100DEC000A128A118230F0000030F1000030F2005B
:100DFC000030F3000A128A1127250A128A11831275
:100E0C0003132408303EF00025080318013E003E71
:100E1C00F1000130F2000030F3000A128A1127258C
:100E2C000A128A117D308312031330063104031D1C
:100E3C00202F212FC62FB001B1010130AE070318AE
:100E4C00AF0A0030AF076430F0000030F1002F081B
:100E5C00F301F3072E08F201F2070A128A11A025FA
:100E6C000A128A11710883120313A101A1077008D9
:100E7C00A001A0076430F0000030F1002F08F3014E
:100E8C00F3072E08F201F2070A128A113A250A1208
:100E9C008A11710883120313AD01AD077008AC0100
:100EAC00AC070A30F0000030F1002D08F301F30715
:100EBC002C08F201F2070A128A11A0250A128A11D3
:100ECC00710883120313AD01AD077008AC01AC07B8
:100EDC000A30F0000030F1002F08F301F3072E0860
:100EEC00F201F2070A128A113A250A128A117108C4
:100EFC0083120313A701A7077008A601A607883061
:100F0C00F0000030F1000030F2000030F3000A1263
:100F1C008A1127250A128A11831203132C08303EDA
:100F2C00F0002D080318013E003EF1000130F200E4
:100F3C000030F3000A128A1127250A128A1189300F
:100F4C00F0000030F1000030F2000030F3000A1223
:100F5C008A1127250A128A11831203132608303EA0
:100F6C00F00027080318013E003EF1000130F200AA
:100F7C000030F3000A128A1127250A128A11C62F93
:100F8C003C30831203132E062F04031DCE2FCF2FBC
:100F9C00FB2F0130A8070318A90A0030A9078D30D0
:100FAC00F0000030F1000030F2000030F3000A12C3
:100FBC008A1127250A128A11831203132808303E3E
:100FCC00F00029080318013E003EF1000130F20048
:100FDC000030F3000A128A1127250A128A11831293
:100FEC000313AE01AF01FB2FFB2F502E502E0A1214
:040FFC008A1100282E
:00000001FF
